:100000000C942A000C9401060C9412060C943C00EB
:100010000C943C000C943C000C943C000C943C0070
:100020000C943C000C943C000C943C000C949A07FB
:100030000C943C000C943C000C943C000C943C0050
:100040000C943C000C943C000C943C000C943C0040
:100050000C943C0011241FBECFE5D8E0DEBFCDBF1D
:1000600020E0A0E6B0E001C01D92A736B207E1F79C
:100070000E944E000C94EE080C94000041E00E9497
:100080002306089541E00E94A206811181E00895AF
:1000900040E00E94A206811181E0089562E082E0C2
:1000A0000E943E0063E082E00E943E0064E082E045
:1000B0000E943E0065E082E00E943E0062E082E035
:1000C0000E94480063E082E00E94480064E082E011
:1000D0000E94480065E082E00E9448000E943D07BF
:1000E0000E9425070E94310780916000883010F03F
:1000F0001092600080916100853010F010926100D4
:1001000080916100823009F43AC230F4882359F0BA
:10011000813009F41EC1E8CF833009F446C384302E
:1001200009F459C4E1CF80916000811111C062E0EF
:1001300082E00E94480063E082E00E94480064E0A0
:1001400082E00E94480065E082E00E944800CCCF37
:100150008130A9F462E082E00E94420064E670E02F
:1001600080E090E00E94690762E082E00E9448001F
:1001700064E873E080E090E00E946907B5CF8230C8
:10018000E1F462E00E94420063E082E00E944200EB
:1001900064E670E080E090E00E94690762E082E03F
:1001A0000E94480063E082E00E94480064E873E037
:1001B00080E090E00E94690797CF833029F562E0E4
:1001C00082E00E94420063E082E00E94420064E01C
:1001D00082E00E94420064E670E080E090E00E94CD
:1001E000690762E082E00E94480063E082E00E94CA
:1001F000480064E082E00E94480064E873E080E028
:1002000090E00E94690770CF843069F562E082E077
:100210000E94420063E082E00E94420064E082E0CB
:100220000E94420065E082E00E94420064E670E0C5
:1002300080E090E00E94690762E082E00E9448004E
:1002400063E082E00E94480064E082E00E9448008F
:1002500065E082E00E94480064E873E080E090E09E
:100260000E94690741CF853049F562E082E00E9433
:10027000480063E082E00E94420064E082E00E9465
:10028000420065E082E00E94420064E670E080E0A7
:1002900090E00E94690763E082E00E94480064E009
:1002A00082E00E94480065E082E00E94480064E825
:1002B00073E080E090E00E94690716CF863029F550
:1002C00062E082E00E94480063E082E00E94480011
:1002D00064E082E00E94420065E082E00E94420009
:1002E00064E670E080E090E00E94690764E082E0EC
:1002F0000E94480065E082E00E94480064E873E0E4
:1003000080E090E00E946907EFCE873009F0ECCEE4
:1003100062E082E00E94480063E082E00E944800C0
:1003200064E082E00E94480065E082E00E944200B2
:1003300064E670E080E090E00E94690765E082E09A
:100340000E94480064E873E080E090E00E94690742
:10035000CBCE80916000811111C062E082E00E94EA
:10036000480063E082E00E94480064E082E00E946E
:10037000480065E082E00E944800B6CE8130A9F4D2
:1003800062E082E00E94420068EC70E080E090E071
:100390000E94690762E082E00E94480060E273E028
:1003A00080E090E00E9469079FCE8230E1F462E035
:1003B0000E94420063E082E00E94420068EC70E02C
:1003C00080E090E00E94690762E082E00E944800BD
:1003D00063E082E00E94480060E273E080E090E029
:1003E0000E94690781CE833029F562E082E00E9495
:1003F000420063E082E00E94420064E082E00E94EA
:10040000420068EC70E080E090E00E94690762E0E2
:1004100082E00E94480063E082E00E94480064E0BD
:1004200082E00E94480060E273E080E090E00E9479
:1004300069075ACE843069F562E082E00E9442008A
:1004400063E082E00E94420064E082E00E94420099
:1004500065E082E00E94420068EC70E080E090E09D
:100460000E94690762E082E00E94480063E082E047
:100470000E94480064E082E00E94480065E082E05B
:100480000E94480060E273E080E090E00E9469070B
:100490002BCE853049F562E082E00E94480063E09F
:1004A00082E00E94420064E082E00E94420065E037
:1004B00082E00E94420068EC70E080E090E00E94E0
:1004C000690763E082E00E94480064E082E00E94E5
:1004D000480065E082E00E94480060E273E080E04E
:1004E00090E00E94690700CE863029F562E082E044
:1004F0000E94480063E082E00E94480064E082E0DD
:100500000E94420065E082E00E94420068EC70E0D8
:1005100080E090E00E94690764E082E00E94480069
:1005200065E082E00E94480060E273E080E090E0D5
:100530000E946907D9CD873009F0D6CD62E082E00C
:100540000E94480063E082E00E94480064E082E08C
:100550000E94480065E082E00E94420068EC70E082
:1005600080E090E00E94690765E082E00E94480018
:1005700060E273E080E090E00E946907B5CD809171
:100580006000811111C062E082E00E94480063E0D7
:1005900082E00E94480064E082E00E94480065E03A
:1005A00082E00E944800A0CD8130A9F462E082E0A0
:1005B0000E9442006CE271E080E090E00E946907D6
:1005C00062E082E00E9448006CEB72E080E090E024
:1005D0000E94690789CD8230E1F462E00E94420006
:1005E00063E082E00E9442006CE271E080E090E013
:1005F0000E94690762E082E00E94480063E082E0B6
:100600000E9448006CEB72E080E090E00E94690775
:100610006BCD833029F562E082E00E94420063E006
:1006200082E00E94420064E082E00E9442006CE2AC
:1006300071E080E090E00E94690762E082E00E9441
:10064000480063E082E00E94480064E082E00E948B
:1006500048006CEB72E080E090E00E94690744CDB6
:10066000843069F562E082E00E94420063E082E04B
:100670000E94420064E082E00E94420065E082E065
:100680000E9442006CE271E080E090E00E94690705
:1006900062E082E00E94480063E082E00E9448003D
:1006A00064E082E00E94480065E082E00E94480029
:1006B0006CEB72E080E090E00E94690715CD853018
:1006C00049F562E082E00E94480063E082E00E9417
:1006D000420064E082E00E94420065E082E00E9405
:1006E00042006CE271E080E090E00E94690763E004
:1006F00082E00E94480064E082E00E94480065E0D9
:1007000082E00E9448006CEB72E080E090E00E9482
:100710006907EACC863029F562E082E00E94480051
:1007200063E082E00E94480064E082E00E944200B0
:1007300065E082E00E9442006CE271E080E090E0BF
:100740000E94690764E082E00E94480065E082E060
:100750000E9448006CEB72E080E090E00E94690724
:10076000C3CC873009F0C0CC62E082E00E94480030
:1007700063E082E00E94480064E082E00E9448005A
:1007800065E082E00E9442006CE271E080E090E06F
:100790000E94690765E082E00E9448006CEB72E00D
:1007A00080E090E00E9469079FCC809160008111F9
:1007B00011C062E082E00E94480063E082E00E9493
:1007C000480064E082E00E94480065E082E00E9408
:1007D00048008ACC8130A9F462E082E00E944200A5
:1007E00064EF71E080E090E00E94690762E082E0DF
:1007F0000E94480064EF71E080E090E00E94690789
:1008000073CC8230E1F462E00E94420063E082E057
:100810000E94420064EF71E080E090E00E9469076E
:1008200062E082E00E94480063E082E00E944800AB
:1008300064EF71E080E090E00E94690755CC83305E
:1008400029F562E082E00E94420063E082E00E94BB
:10085000420064E082E00E94420064EF71E080E0C8
:1008600090E00E94690762E082E00E94480063E035
:1008700082E00E94480064E082E00E94480064EF49
:1008800071E080E090E00E9469072ECC843069F529
:1008900062E082E00E94420063E082E00E94420047
:1008A00064E082E00E94420065E082E00E94420033
:1008B00064EF71E080E090E00E94690762E082E00E
:1008C0000E94480063E082E00E94480064E082E009
:1008D0000E94480065E082E00E94480064EF71E0F9
:1008E00080E090E00E946907FFCB853049F562E027
:1008F00082E00E94480063E082E00E94420064E0DF
:1009000082E00E94420065E082E00E94420064EFC3
:1009100071E080E090E00E94690763E082E00E945D
:10092000480064E082E00E94480065E082E00E94A6
:10093000480064EF71E080E090E00E946907D4CB4A
:10094000863029F562E082E00E94480063E082E0A0
:100950000E94480064E082E00E94420065E082E07C
:100960000E94420064EF71E080E090E00E9469071D
:1009700064E082E00E94480065E082E00E94480056
:1009800064EF71E080E090E00E946907ADCB8730B2
:1009900009F0AACB62E082E00E94480063E082E0B6
:1009A0000E94480064E082E00E94480065E082E026
:1009B0000E94420064EF71E080E090E00E946907CD
:1009C00065E082E00E94480064EF71E080E090E022
:1009D0000E94690789CB80916000811111C062E09B
:1009E00082E00E94480063E082E00E94480064E0E8
:1009F00082E00E94480065E082E00E94480074CBDB
:100A00008130A9F462E082E00E94420060E273E07B
:100A100080E090E00E94690762E082E00E94480066
:100A200068EC70E080E090E00E9469075DCB823066
:100A3000E1F462E00E94420063E082E00E94420032
:100A400060E273E080E090E00E94690762E082E08B
:100A50000E94480063E082E00E94480068EC70E079
:100A600080E090E00E9469073FCB833029F562E087
:100A700082E00E94420063E082E00E94420064E063
:100A800082E00E94420060E273E080E090E00E9419
:100A9000690762E082E00E94480063E082E00E9411
:100AA000480064E082E00E94480068EC70E080E06A
:100AB00090E00E94690718CB843069F562E082E01B
:100AC0000E94420063E082E00E94420064E082E013
:100AD0000E94420065E082E00E94420060E273E012
:100AE00080E090E00E94690762E082E00E94480096
:100AF00063E082E00E94480064E082E00E944800D7
:100B000065E082E00E94480068EC70E080E090E0E0
:100B10000E946907E9CA853049F562E082E00E94D7
:100B2000480063E082E00E94420064E082E00E94AC
:100B3000420065E082E00E94420060E273E080E0F3
:100B400090E00E94690763E082E00E94480064E050
:100B500082E00E94480065E082E00E94480068EC64
:100B600070E080E090E00E946907BECA863029F5F7
:100B700062E082E00E94480063E082E00E94480058
:100B800064E082E00E94420065E082E00E94420050
:100B900060E273E080E090E00E94690764E082E038
:100BA0000E94480065E082E00E94480068EC70E026
:100BB00080E090E00E94690797CA873009F094CAE4
:100BC00062E082E00E94480063E082E00E94480008
:100BD00064E082E00E94480065E082E00E944200FA
:100BE00060E273E080E090E00E94690765E082E0E7
:100BF0000E94480068EC70E080E090E00E94690785
:100C000073CA1F920F920FB60F9211248F93809187
:100C100061008F5F809361008F910F900FBE0F90E6
:100C20001F9018951F920F920FB60F9211248F9359
:100C3000809160008F5F809360008F910F900FBE56
:100C40000F901F901895442319F04130E9F174C0BA
:100C5000813099F028F08230E9F0833041F16EC0A4
:100C60002AB381E090E002C0880F991F6A95E2F7ED
:100C7000809582238ABB80E0089527B381E090E0CD
:100C800002C0880F991F6A95E2F78095822387BB7F
:100C900080E0089524B381E090E002C0880F991F9E
:100CA0006A95E2F78095822384BB80E0089521B3A2
:100CB00081E090E002C0880F991F6A95E2F7809565
:100CC000822381BB80E00895813091F028F082304A
:100CD000D9F0833029F134C02AB381E090E002C01A
:100CE000880F991F6A95E2F7822B8ABB80E00895EE
:100CF00027B381E090E002C0880F991F6A95E2F760
:100D0000822B87BB80E0089524B381E090E002C08D
:100D1000880F991F6A95E2F7822B84BB80E00895C3
:100D200021B381E090E002C0880F991F6A95E2F735
:100D3000822B81BB80E0089581E0089581E00895D1
:100D400081E00895442319F04130E9F174C0813005
:100D500099F028F08230E9F0833041F16EC02BB376
:100D600081E090E002C0880F991F6A95E2F78095B4
:100D700082238BBB80E0089528B381E090E002C01D
:100D8000880F991F6A95E2F78095822388BB80E0DF
:100D9000089525B381E090E002C0880F991F6A95FD
:100DA000E2F78095822385BB80E0089522B381E03D
:100DB00090E002C0880F991F6A95E2F78095822320
:100DC00082BB80E00895813091F028F08230D9F024
:100DD000833029F134C02BB381E090E002C0880F4A
:100DE000991F6A95E2F7822B8BBB80E0089528B3A8
:100DF00081E090E002C0880F991F6A95E2F7822B8C
:100E000088BB80E0089525B381E090E002C0880FA0
:100E1000991F6A95E2F7822B85BB80E0089522B383
:100E200081E090E002C0880F991F6A95E2F7822B5B
:100E300082BB80E0089581E0089581E0089581E01B
:100E400008958FB780688FBF08950E94210785B7E6
:100E5000816085BF85B7826085BF8BB780648BBF9B
:100E600008950E94210785B7846085BF85B7886093
:100E700085BF8BB780688BBF089583B78F7783BF9B
:100E800083B78F7B83BF83B7877F83BF83B78F7E13
:100E900083BF83B78F7D83BF8FB780688FBF89B7CC
:100EA000816089BF80E0089583B7816083BF83B785
:100EB0008D7F83BF83B7846083BF80E0089583B74D
:100EC0008E7F83BF83B78D7F83BF83B78B7F83BFC5
:100ED00008950E9460082FE632E143E052E40E9448
:100EE000BF070E9431086093660012BE0E9454073B
:100EF00003C088B7816088BF8091660090E0A0E061
:100F0000B0E0409162005091630060916400709184
:100F10006500481759076A077B0758F3109262006B
:100F20001092630010926400109265000E945F07A7
:100F300080E008951F920F920FB60F9211248F93A5
:100F40009F93AF93BF938091620090916300A091B3
:100F50006400B09165000196A11DB11D80936200EF
:100F600090936300A0936400B0936500BF91AF912C
:100F70009F918F910F900FBE0F901F9018950E9418
:100F8000D3070C94B4080E94AD0858F00E94A6083C
:100F900040F029F45F3F29F00C949D0851110C9406
:100FA000E8080C94A3080E94C50868F39923B1F3DC
:100FB000552391F3951B550BBB27AA27621773077F
:100FC000840738F09F5F5F4F220F331F441FAA1F13
:100FD000A9F335D00E2E3AF0E0E832D091505040CF
:100FE000E695001CCAF72BD0FE2F29D0660F771F7D
:100FF000881FBB1F261737074807AB07B0E809F063
:10100000BB0B802DBF01FF2793585F4F3AF09E3FE7
:10101000510578F00C949D080C94E8085F3FE4F3C8
:10102000983ED4F3869577956795B795F7959F5F2A
:10103000C9F7880F911D9695879597F90895E1E076
:10104000660F771F881FBB1F621773078407BA07D5
:1010500020F0621B730B840BBA0BEE1F88F7E09530
:1010600008950E94CD0888F09F5798F0B92F9927CE
:10107000B751B0F0E1F0660F771F881F991F1AF083
:10108000BA95C9F714C0B13091F00E94E708B1E0F9
:1010900008950C94E708672F782F8827B85F39F0F8
:1010A000B93FCCF3869577956795B395D9F73EF41C
:1010B00090958095709561957F4F8F4F9F4F0895C4
:1010C000E89409C097FB3EF49095809570956195E2
:1010D0007F4F8F4F9F4F9923A9F0F92F96E9BB2798
:1010E0009395F695879577956795B795F111F8CF14
:1010F000FAF4BB0F11F460FF1BC06F5F7F4F8F4F7F
:101100009F4F16C0882311F096E911C0772321F074
:101110009EE8872F762F05C0662371F096E8862F0C
:1011200070E060E02AF09A95660F771F881FDAF763
:10113000880F9695879597F9089597F99F6780E8A6
:1011400070E060E008959FEF80EC089500240A9419
:101150001616170618060906089500240A94121692
:101160001306140605060895092E0394000C11F4C5
:10117000882352F0BB0F40F4BF2B11F460FF04C072
:101180006F5F7F4F8F4F9F4F089557FD9058440FCB
:10119000551F59F05F3F71F04795880F97FB991FD6
:1011A00061F09F3F79F08795089512161306140693
:1011B000551FF2CF4695F1DF08C016161706180620
:1011C000991FF1CF86957105610508940895E894FB
:1011D000BB2766277727CB0197F90895F894FFCFAF
:00000001FF
