:100000000C942A000C942F060C9440060C943C008F
:100010000C943C000C943C000C943C000C943C0070
:100020000C943C000C943C000C943C000C94DF07B6
:100030000C943C000C943C000C943C000C943C0050
:100040000C943C000C943C000C943C000C943C0040
:100050000C943C0011241FBECFE5D8E0DEBFCDBF1D
:1000600020E0A0E6B0E001C01D92A736B207E1F79C
:100070000E9461060C9433090C94000062E082E057
:100080000E945B06811113C063E082E00E945B0660
:1000900081110FC064E082E00E945B0681110BC0F9
:1000A00065E082E00E945B06811107C0089581E04F
:1000B000089581E0089581E0089581E0089562E067
:1000C00082E00E945106811113C063E082E00E9429
:1000D000510681110FC064E082E00E945106811137
:1000E0000BC065E082E00E945106811107C00895AF
:1000F00081E0089581E0089581E0089581E0089508
:10010000CF930E945F00811112C00E943E00C82F51
:1001100081110FC00E94820781110DC00E946807E3
:1001200081110BC00E947507811109C009C0C1E08F
:1001300007C0C1E005C0C1E003C0C1E001C0C1E02B
:100140008C2FCF91089580916000883010F010922C
:10015000600080916100853010F010926100809104
:100160006100823009F43AC230F4882359F08130BA
:1001700009F41EC10895833009F446C3843009F49C
:1001800059C4089580916000811111C062E082E03D
:100190000E945B0663E082E00E945B0664E082E00E
:1001A0000E945B0665E082E00E945B060895813054
:1001B000A9F462E082E00E94550664E670E080E007
:1001C00090E00E94AE0762E082E00E945B0664E875
:1001D00073E080E090E00E94AE0708958230E1F481
:1001E00062E00E94550663E082E00E94550664E6E4
:1001F00070E080E090E00E94AE0762E082E00E9442
:100200005B0663E082E00E945B0664E873E080E0E6
:1002100090E00E94AE070895833029F562E082E005
:100220000E94550663E082E00E94550664E082E089
:100230000E94550664E670E080E090E00E94AE0700
:1002400062E082E00E945B0663E082E00E945B065F
:1002500064E082E00E945B0664E873E080E090E086
:100260000E94AE070895843069F562E082E00E9442
:10027000550663E082E00E94550664E082E00E9439
:10028000550665E082E00E94550664E670E080E075
:1002900090E00E94AE0762E082E00E945B0663E0AD
:1002A00082E00E945B0664E082E00E945B0665E0FB
:1002B00082E00E945B0664E873E080E090E00E94C8
:1002C000AE070895853049F562E082E00E945B0642
:1002D00063E082E00E94550664E082E00E945506D9
:1002E00065E082E00E94550664E670E080E090E000
:1002F0000E94AE0763E082E00E945B0664E082E059
:100300000E945B0665E082E00E945B0664E873E0A1
:1003100080E090E00E94AE070895863029F562E003
:1003200082E00E945B0663E082E00E945B0664E07C
:1003300082E00E94550665E082E00E94550664E670
:1003400070E080E090E00E94AE0764E082E00E94EE
:100350005B0665E082E00E945B0664E873E080E093
:1003600090E00E94AE070895873009F077C462E0FC
:1003700082E00E945B0663E082E00E945B0664E02C
:1003800082E00E945B0665E082E00E94550664E61A
:1003900070E080E090E00E94AE0765E082E00E949D
:1003A0005B0664E873E080E090E00E94AE07089589
:1003B00080916000811111C062E082E00E945B06C2
:1003C00063E082E00E945B0664E082E00E945B06DC
:1003D00065E082E00E945B0608958130A9F462E046
:1003E00082E00E94550668EC70E080E090E00E9498
:1003F000AE0762E082E00E945B0660E273E080E0AC
:1004000090E00E94AE0708958230E1F462E00E941D
:10041000550663E082E00E94550668EC70E080E0DB
:1004200090E00E94AE0762E082E00E945B0663E01B
:1004300082E00E945B0660E273E080E090E00E9450
:10044000AE070895833029F562E082E00E945506E8
:1004500063E082E00E94550664E082E00E94550657
:1004600068EC70E080E090E00E94AE0762E082E01D
:100470000E945B0663E082E00E945B0664E082E02B
:100480000E945B0660E273E080E090E00E94AE07AD
:100490000895843069F562E082E00E94550663E0C9
:1004A00082E00E94550664E082E00E94550665E005
:1004B00082E00E94550668EC70E080E090E00E94C7
:1004C000AE0762E082E00E945B0663E082E00E9489
:1004D0005B0664E082E00E945B0665E082E00E94C9
:1004E0005B0660E273E080E090E00E94AE07089552
:1004F000853049F562E082E00E945B0663E082E0BD
:100500000E94550664E082E00E94550665E082E0A4
:100510000E94550668EC70E080E090E00E94AE0713
:1005200063E082E00E945B0664E082E00E945B067A
:1005300065E082E00E945B0660E273E080E090E0AC
:100540000E94AE070895863029F562E082E00E949D
:100550005B0663E082E00E945B0664E082E00E944A
:10056000550665E082E00E94550668EC70E080E088
:1005700090E00E94AE0764E082E00E945B0665E0C6
:1005800082E00E945B0660E273E080E090E00E94FF
:10059000AE070895873009F061C362E082E00E94EF
:1005A0005B0663E082E00E945B0664E082E00E94FA
:1005B0005B0665E082E00E94550668EC70E080E032
:1005C00090E00E94AE0765E082E00E945B0660E278
:1005D00073E080E090E00E94AE0708958091600093
:1005E000811111C062E082E00E945B0663E082E05C
:1005F0000E945B0664E082E00E945B0665E082E0A8
:100600000E945B0608958130A9F462E082E00E94B6
:1006100055066CE271E080E090E00E94AE0762E077
:1006200082E00E945B066CEB72E080E090E00E944A
:10063000AE0708958230E1F462E00E94550663E05F
:1006400082E00E9455066CE271E080E090E00E943A
:10065000AE0762E082E00E945B0663E082E00E94F7
:100660005B066CEB72E080E090E00E94AE070895BC
:10067000833029F562E082E00E94550663E082E063
:100680000E94550664E082E00E9455066CE271E02B
:1006900080E090E00E94AE0762E082E00E945B068C
:1006A00063E082E00E945B0664E082E00E945B06F9
:1006B0006CEB72E080E090E00E94AE070895843019
:1006C00069F562E082E00E94550663E082E00E94E4
:1006D000550664E082E00E94550665E082E00E94D3
:1006E00055066CE271E080E090E00E94AE0762E0A7
:1006F00082E00E945B0663E082E00E945B0664E0A9
:1007000082E00E945B0665E082E00E945B066CEB83
:1007100072E080E090E00E94AE070895853049F5D0
:1007200062E082E00E945B0663E082E00E94550680
:1007300064E082E00E94550665E082E00E94550672
:100740006CE271E080E090E00E94AE0763E082E03E
:100750000E945B0664E082E00E945B0665E082E046
:100760000E945B066CEB72E080E090E00E94AE07B6
:100770000895863029F562E082E00E945B0663E01E
:1007800082E00E945B0664E082E00E94550665E01C
:1007900082E00E9455066CE271E080E090E00E94E9
:1007A000AE0764E082E00E945B0665E082E00E94A2
:1007B0005B066CEB72E080E090E00E94AE0708956B
:1007C000873009F04BC262E082E00E945B0663E082
:1007D00082E00E945B0664E082E00E945B0665E0C6
:1007E00082E00E9455066CE271E080E090E00E9499
:1007F000AE0765E082E00E945B066CEB72E080E091
:1008000090E00E94AE07089580916000811111C0B0
:1008100062E082E00E945B0663E082E00E945B0689
:1008200064E082E00E945B0665E082E00E945B0675
:1008300008958130A9F462E082E00E94550664EFD9
:1008400071E080E090E00E94AE0762E082E00E94EA
:100850005B0664EF71E080E090E00E94AE070895CF
:100860008230E1F462E00E94550663E082E00E947B
:10087000550664EF71E080E090E00E94AE0762E010
:1008800082E00E945B0663E082E00E945B0664EF08
:1008900071E080E090E00E94AE070895833029F572
:1008A00062E082E00E94550663E082E00E94550605
:1008B00064E082E00E94550664EF71E080E090E021
:1008C0000E94AE0762E082E00E945B0663E082E085
:1008D0000E945B0664E082E00E945B0664EF71E0C8
:1008E00080E090E00E94AE070895843069F562E0F0
:1008F00082E00E94550663E082E00E94550664E0B3
:1009000082E00E94550665E082E00E94550664EF91
:1009100071E080E090E00E94AE0762E082E00E9419
:100920005B0663E082E00E945B0664E082E00E9476
:100930005B0665E082E00E945B0664EF71E080E0A8
:1009400090E00E94AE070895853049F562E082E0AC
:100950000E945B0663E082E00E94550664E082E04C
:100960000E94550665E082E00E94550664EF71E042
:1009700080E090E00E94AE0763E082E00E945B06A8
:1009800064E082E00E945B0665E082E00E945B0614
:1009900064EF71E080E090E00E94AE070895863039
:1009A00029F562E082E00E945B0663E082E00E943B
:1009B0005B0664E082E00E94550665E082E00E94EA
:1009C000550664EF71E080E090E00E94AE0764E0BD
:1009D00082E00E945B0665E082E00E945B0664EFB5
:1009E00071E080E090E00E94AE070895873009F042
:1009F00035C162E082E00E945B0663E082E00E9413
:100A00005B0664E082E00E945B0665E082E00E9493
:100A1000550664EF71E080E090E00E94AE0765E06B
:100A200082E00E945B0664EF71E080E090E00E944B
:100A3000AE07089580916000811111C062E082E0EC
:100A40000E945B0663E082E00E945B0664E082E055
:100A50000E945B0665E082E00E945B06089581309B
:100A6000A9F462E082E00E94550660E273E080E053
:100A700090E00E94AE0762E082E00E945B0668ECB4
:100A800070E080E090E00E94AE0708958230E1F4CB
:100A900062E00E94550663E082E00E94550660E233
:100AA00073E080E090E00E94AE0762E082E00E9486
:100AB0005B0663E082E00E945B0668EC70E080E029
:100AC00090E00E94AE070895833029F562E082E04D
:100AD0000E94550663E082E00E94550664E082E0D1
:100AE0000E94550660E273E080E090E00E94AE074D
:100AF00062E082E00E945B0663E082E00E945B06A7
:100B000064E082E00E945B0668EC70E080E090E0C8
:100B10000E94AE070895843069F562E082E00E9489
:100B2000550663E082E00E94550664E082E00E9480
:100B3000550665E082E00E94550660E273E080E0C1
:100B400090E00E94AE0762E082E00E945B0663E0F4
:100B500082E00E945B0664E082E00E945B0665E042
:100B600082E00E945B0668EC70E080E090E00E940A
:100B7000AE070895853049F562E082E00E945B0689
:100B800063E082E00E94550664E082E00E94550620
:100B900065E082E00E94550660E273E080E090E04C
:100BA0000E94AE0763E082E00E945B0664E082E0A0
:100BB0000E945B0665E082E00E945B0668EC70E0E4
:100BC00080E090E00E94AE070895863029F562E04B
:100BD00082E00E945B0663E082E00E945B0664E0C4
:100BE00082E00E94550665E082E00E94550660E2C0
:100BF00073E080E090E00E94AE0764E082E00E9433
:100C00005B0665E082E00E945B0668EC70E080E0D5
:100C100090E00E94AE070895873001F562E082E01F
:100C20000E945B0663E082E00E945B0664E082E073
:100C30000E945B0665E082E00E94550660E273E078
:100C400080E090E00E94AE0765E082E00E945B06D3
:100C500068EC70E080E090E00E94AE0708951F927B
:100C60000F920FB60F9211248F93809161008F5FC6
:100C7000809361008F910F900FBE0F901F90189579
:100C80001F920F920FB60F9211248F9380916000E4
:100C90008F5F809360008F910F900FBE0F901F9019
:100CA000189541E00E946606089541E00E94E5061D
:100CB000811181E0089540E00E94E506811181E004
:100CC00008950E9480000E94A300FDCF442319F0E4
:100CD0004130E9F174C0813099F028F08230E9F0B8
:100CE000833041F16EC02AB381E090E002C0880FEA
:100CF000991F6A95E2F7809582238ABB80E0089568
:100D000027B381E090E002C0880F991F6A95E2F74F
:100D10008095822387BB80E0089524B381E090E032
:100D200002C0880F991F6A95E2F78095822384BBE1
:100D300080E0089521B381E090E002C0880F991F00
:100D40006A95E2F78095822381BB80E00895813027
:100D500091F028F08230D9F0833029F134C02AB3E1
:100D600081E090E002C0880F991F6A95E2F7822B1C
:100D70008ABB80E0089527B381E090E002C0880F2D
:100D8000991F6A95E2F7822B87BB80E0089524B310
:100D900081E090E002C0880F991F6A95E2F7822BEC
:100DA00084BB80E0089521B381E090E002C0880F09
:100DB000991F6A95E2F7822B81BB80E0089581E05C
:100DC000089581E0089581E00895442319F04130A9
:100DD000E9F174C0813099F028F08230E9F0833075
:100DE00041F16EC02BB381E090E002C0880F991FE3
:100DF0006A95E2F7809582238BBB80E0089528B343
:100E000081E090E002C0880F991F6A95E2F7809513
:100E1000822388BB80E0089525B381E090E002C082
:100E2000880F991F6A95E2F78095822385BB80E041
:100E3000089522B381E090E002C0880F991F6A955F
:100E4000E2F78095822382BB80E00895813091F0A3
:100E500028F08230D9F0833029F134C02BB381E0FF
:100E600090E002C0880F991F6A95E2F7822B8BBB36
:100E700080E0089528B381E090E002C0880F991FB8
:100E80006A95E2F7822B88BB80E0089525B381E064
:100E900090E002C0880F991F6A95E2F7822B85BB0C
:100EA00080E0089522B381E090E002C0880F991F8E
:100EB0006A95E2F7822B82BB80E0089581E0089575
:100EC00081E0089581E008958FB780688FBF08950D
:100ED0000E94640785B7816085BF85B7826085BF42
:100EE0008BB780648BBF80E008950E94640785B74C
:100EF000846085BF85B7886085BF8BB780688BBFEE
:100F000080E0089583B78F7783BF83B78F7B83BFDC
:100F100083B7877F83BF83B78F7E83BF83B78F7D80
:100F200083BF8FB780688FBF89B7816089BF80E03A
:100F3000089583B7816083BF83B78D7F83BF83B7F5
:100F4000846083BF80E0089583B78E7F83BF83B7BB
:100F50008D7F83BF83B78B7F83BF08950E94A508D1
:100F60002FE632E143E052E40E9404080E94760832
:100F70006093660012BE0E94990703C088B7816023
:100F800088BF8091660090E0A0E0B0E040916200F0
:100F90005091630060916400709165004817590793
:100FA0006A077B0758F31092620010926300109258
:100FB0006400109265000E94A40780E008951F92CB
:100FC0000F920FB60F9211248F939F93AF93BF93FD
:100FD0008091620090916300A0916400B0916500DF
:100FE0000196A11DB11D8093620090936300A093B0
:100FF0006400B0936500BF91AF919F918F910F9066
:101000000FBE0F901F9018950E9418080C94F908B5
:101010000E94F20858F00E94EB0840F029F45F3F6C
:1010200029F00C94E20851110C942D090C94E80855
:101030000E940A0968F39923B1F3552391F3951B94
:10104000550BBB27AA2762177307840738F09F5FE9
:101050005F4F220F331F441FAA1FA9F335D00E2E56
:101060003AF0E0E832D091505040E695001CCAF7C3
:101070002BD0FE2F29D0660F771F881FBB1F261786
:1010800037074807AB07B0E809F0BB0B802DBF015D
:10109000FF2793585F4F3AF09E3F510578F00C942C
:1010A000E2080C942D095F3FE4F3983ED4F3869553
:1010B00077956795B795F7959F5FC9F7880F911D4D
:1010C0009695879597F90895E1E0660F771F881F39
:1010D000BB1F621773078407BA0720F0621B730BEC
:1010E000840BBA0BEE1F88F7E09508950E94120951
:1010F00088F09F5798F0B92F9927B751B0F0E1F0D9
:10110000660F771F881F991F1AF0BA95C9F714C088
:10111000B13091F00E942C09B1E008950C942C0993
:10112000672F782F8827B85F39F0B93FCCF38695C1
:1011300077956795B395D9F73EF49095809570951E
:1011400061957F4F8F4F9F4F0895E89409C097FB9B
:101150003EF490958095709561957F4F8F4F9F4F8E
:101160009923A9F0F92F96E9BB279395F6958795D2
:1011700077956795B795F111F8CFFAF4BB0F11F495
:1011800060FF1BC06F5F7F4F8F4F9F4F16C088233C
:1011900011F096E911C0772321F09EE8872F762F72
:1011A00005C0662371F096E8862F70E060E02AF0B3
:1011B0009A95660F771F881FDAF7880F969587959F
:1011C00097F9089597F99F6780E870E060E00895C7
:1011D0009FEF80EC089500240A941616170618064F
:1011E0000906089500240A9412161306140605062B
:1011F0000895092E0394000C11F4882352F0BB0FBC
:1012000040F4BF2B11F460FF04C06F5F7F4F8F4F1E
:101210009F4F089557FD9058440F551F59F05F3F59
:1012200071F04795880F97FB991F61F09F3F79F008
:1012300087950895121613061406551FF2CF46958A
:10124000F1DF08C0161617061806991FF1CF86950C
:101250007105610508940895E894BB2766277727F0
:0A126000CB0197F90895F894FFCF31
:00000001FF
