S01300004C65645F7061747465726E2E737265639F
S11300000C942A000C943C000C943C000C943C008E
S11300100C943C000C943C000C943C000C943C006C
S11300200C943C000C943C000C943C000C943C005C
S11300300C943C000C943C000C943C000C943C004C
S11300400C943C000C943C000C943C000C943C003C
S11300500C943C0011241FBECFE5D8E0DEBFCDBF19
S113006020E0A0E6B0E001C01D92A236B207E1F79D
S11300700E94A9010C94EA020C94000062E082E060
S11300800E941101811113C067E082E00E941101F6
S113009081110FC063E083E00E94110181110BC044
S11300A064E083E00E941101811107C0089581E09A
S11300B0089581E0089581E0089581E0089564E061
S11300C081E00E94EF00811181E0089562E082E006
S11300D00E941B01811113C067E082E00E941B0192
S11300E081110FC063E083E00E941B0181110BC0EA
S11300F064E083E00E941B01811107C0089581E040
S1130100089581E0089581E0089581E008951092B2
S11301106100109260000E943E00811107C00E949D
S11301205F00811105C00E946600089581E0089572
S113013081E0089541E650E064E081E00E94F5002A
S113014080916100813009F049C08BE49DE1019701
S1130150F1F700C0000041E650E064E081E00E9455
S1130160F500809161008130C9F5809160008F5F56
S113017080936000813019F40E9421012BC08230E9
S113018019F40E94320126C0833019F40E944301FD
S113019021C0843019F40E9454011CC0853019F424
S11301A00E94650117C0863019F40E94760112C0BE
S11301B0873019F40E9487010DC0883059F40E94D9
S11301C098011092600006C041E650E064E081E0CE
S11301D00E94F500809161008111F6CF089540E0FE
S11301E00E94AE01811181E008950F931F93CF9374
S11301F0DF931F92CDB7DEB78A011982AE014F5F3C
S11302005F4F0E94AC02811105C08981F80180838F
S113021080E001C081E00F90DF91CF911F910F9199
S1130220089541E00E94AE01089541E00E942D022C
S1130230811181E0089540E00E942D02811181E046
S1130240089562E082E00E94150167E082E00E9466
S11302501B0163E083E00E941B0164E083E00E94D1
S11302601B01089562E082E00E94150167E082E0CC
S11302700E94150163E083E00E941B0164E083E0B7
S11302800E941B01089562E082E00E94150167E06C
S113029082E00E94150163E083E00E94150164E09E
S11302A083E00E941B01089562E082E00E94150130
S11302B067E082E00E94150163E083E00E9415017B
S11302C064E083E00E941501089562E082E00E94E8
S11302D01B0167E082E00E94150163E083E00E9455
S11302E0150164E083E00E941501089562E082E054
S11302F00E941B0167E082E00E941B0163E083E02F
S11303000E94150164E083E00E941501089562E0F3
S113031082E00E941B0167E082E00E941B0163E00F
S113032083E00E941B0164E083E00E9415010895AC
S113033062E082E00E941B0167E082E00E941B01F0
S113034063E083E00E941B0164E083E00E941B01E0
S113035008950E9487000E949A00FDCF442319F05B
S11303604130E9F174C0813099F028F08230E9F02D
S1130370833041F16EC02AB381E090E002C0880F5F
S1130380991F6A95E2F7809582238ABB80E00895DD
S113039027B381E090E002C0880F991F6A95E2F7C5
S11303A08095822387BB80E0089524B381E090E0A8
S11303B002C0880F991F6A95E2F78095822384BB57
S11303C080E0089521B381E090E002C0880F991F76
S11303D06A95E2F78095822381BB80E0089581309D
S11303E091F028F08230D9F0833029F134C02AB357
S11303F081E090E002C0880F991F6A95E2F7822B92
S11304008ABB80E0089527B381E090E002C0880FA2
S1130410991F6A95E2F7822B87BB80E0089524B385
S113042081E090E002C0880F991F6A95E2F7822B61
S113043084BB80E0089521B381E090E002C0880F7E
S1130440991F6A95E2F7822B81BB80E0089581E0D1
S1130450089581E0089581E00895442319F041301E
S1130460E9F174C0813099F028F08230E9F08330EA
S113047041F16EC02BB381E090E002C0880F991F58
S11304806A95E2F7809582238BBB80E0089528B3B8
S113049081E090E002C0880F991F6A95E2F7809589
S11304A0822388BB80E0089525B381E090E002C0F8
S11304B0880F991F6A95E2F78095822385BB80E0B7
S11304C0089522B381E090E002C0880F991F6A95D5
S11304D0E2F78095822382BB80E00895813091F019
S11304E028F08230D9F0833029F134C02BB381E075
S11304F090E002C0880F991F6A95E2F7822B8BBBAC
S113050080E0089528B381E090E002C0880F991F2D
S11305106A95E2F7822B88BB80E0089525B381E0D9
S113052090E002C0880F991F6A95E2F7822B85BB81
S113053080E0089522B381E090E002C0880F991F03
S11305406A95E2F7822B82BB80E0089581E00895EA
S113055081E0089581E00895813099F028F0823097
S1130560E9F0833041F134C089B390E002C095953D
S113057087956A95E2F7817089BBFA01808380E0F0
S1130580089586B390E002C0959587956A95E2F741
S1130590817086BBFA01808380E0089583B390E084
S11305A002C0959587956A95E2F7817083BBFA013D
S11305B0808380E0089580B390E002C0959587958C
S11305C06A95E2F7817080BBFA01808380E0089528
S10B05D081E00895F894FFCFC7
S9030000FC
